1000000901635811I               225PAGONOM     20240122A1202401220000112000000000000000000000000024229834037500001620S
630082730            SANDRA PATRICIA GARZON FONTECH00000NULL00200015366      S370000000000080173220240122                    100000
61032483041          SANTIAGO OÑATE RICARDO        00000NULL17100030004      S370000000000424716920240122                    100000
61152686553          SANTIAGO RICO QUINTERO        00000NULL27258823732      S370000000000154442520240122                    100000
61000192235          SANTIAGO SALAZAR RAMIREZ      00000NULL91229020990      S370000000000154442520240122                    100000
61000295179          SANTIAGO TORRES MUÑOZ         00000NULL61603856901      S370000000000154442520240122                    100000
61038867064          SARA GARCIA HOYOS             00000NULL69355530141      S370000000000154442520240122                    100000
61006820137          SARA LUCIA SOTO GALVIS        00000NULL84485106625      S370000000000154442520240122                    100000
61017256466          SARITA PEREZ CARDONA          00000NULL29800003546      S370000000000308885120240122                    100000
61036652317          SEBASTIAN CHEN ZHEN           00000NULL01447496719      S370000000000257404220240122                    100000
61007243524          SEBASTIAN PANDALES OVIEDO     00000NULL34200003585      S370000000000160940920240122                    100000
61020492948          SEBASTIAN RIVERA GOMEZ        00000NULL91229282315      S370000000000135066420240122                    100000
61040570814          VALENTINA ALZATE NASSAR       00000NULL42066149433      S370000000000200034920240122                    100000
61000098756          LUISA GRAJALES MUÑOZ          00000NULL02400085148      S370000000000154442520240122                    100000
61001234257          MANUELA GOMEZ LONDOÑO         00000NULL91209868038      S370000000000190284920240122                    100000
61193113622          MARCELO RUIZ CARMONA          00000NULL036001309511     S370000000000175034920240122                    100000
652335051            MARIA CONSUELO PEREZ CAMACHO  00000NULL22367434183      S370000000000175034920240122                    100000
61143170118          MARIA LUISA GOMEZ YOLIANI     00000NULL035100057716     S370000000000142692520240122                    100000
61020482835          MARIA PAULINA RIVERA CORREA   00000NULL51192984339      S370000000000149084420240122                    100000
61000532915          MARIAN JANETH HIDALGO PEREA   00000NULL37722940637      S370000000000209034920240122                    100000
63931595             MAYKOL SAUL FEBRES ROSARIO    00000NULL42000000884      S370000000000154442520240122                    500000
61000155068          MICHELLE DANIELA GARZON JARAMI00000NULL0550036001307408 S370000000000175034920240122                    100000
61020446484          Maria Alejandra Restrepo Castr00000NULL34745589784      S370000000000175034920240122                    100000
61047498971          NELLY CAROLINA ZAMBRANO DORIA 00000NULL95735900219      S370000000000257404220240122                    100000
61152452268          SAMUEL ASSIS LONDOÑO          00000NULL34419247792      S370000000000319181420240122                    100000
61037647697          JUAN ESTEBAN CHAVARRIA SERNA  00000NULL93548959347      S370000000000205923420240122                    100000
61020483413          JUAN ESTEBAN MIRA VANEGAS     00000NULL37700002774      S370000000000154442520240122                    100000
61001226136          JUAN GUILLERMO MACHADO SANCHEZ00000NULL25547822229      S370000000000165534920240122                    100000
65978848             JUAN LUIS MARVEZ SANCHEZ      00000NULL24500008584      S370000000000154442520240122                    500000
61017249723          JUAN PABLO QUINTERO MARTINEZ  00000NULL31600031999      S370000000000142692520240122                    100000
61030618602          JUAN SEBASTIAN FAJARDO ALVAREZ00000NULL57130987194      S370000000000154442520240122                    100000
61067937911          JULIO CESAR CASTELLANOS AVILA 00000NULL79046877760      S370000000001321600020240122                    100000
61127004298          Jihad Abdalah Arnemann Posso  00000NULL91229182205      S370000000000175034920240122                    100000
61039452969          Jose Julian Castrillon Saldarr00000NULL02118733706      S370000000000308885120240122                    100000
61125293307          Juan Camilo Medina Barrera    00000NULL00733749041      S370000000000154442520240122                    100000
61036943821          Juan Camilo Valencia Saenz    00000NULL41294221661      S370000000000271285120240122                    100000
65655239             LUIS MIGUEL GONZALEZ GONZALEZ 00000NULL25983905407      S370000000000154442520240122                    500000
65065570             IVAN ARIAS CARRILLO           00000NULL00200002427      S370000000000319181420240122                    500000
61000415399          JEAN PAUL RAMIREZ ECHAVARRIA  00000NULL29208798209      S370000000000154442520240122                    100000
61075270716          JESSICA VIVIANA FALLA MONTILLA00000NULL45500023400      S370000000000209034920240122                    100000
61007286878          JEYSON DAVID RIVERA AGUDELO   00000NULL0550488442531320 S370000000000164154920240122                    100000
61054990413          JHON DANIEL CARDONA OSSA      00000NULL70689236080      S370000000001346600020240122                    100000
61103120476          JHONATAN SMITH MENDOZA BUSTAMA00000NULL91245470938      S370000000000164534920240122                    100000
61014251595          JIMMY RAMIREZ CALDERON        00000NULL93528569593      S370000000000175034920240122                    100000
61128274391          JOHN SEBASTIAN CARDONA FRANCO 00000NULL31451307099      S370000000000202321720240122                    100000
61017177349          JONATHAN JAVIER MONTES CASTRO 00000NULL27259485831      S370000000000540549020240122                    100000
61000413903          JOSE MANUEL IBARGUEN MORENO   00000NULL62529757714      S370000000000154442520240122                    100000
61053786316          JUAN DAVID VARGAS BETANCOURT  00000NULL33339113209      S370000000000149040020240122                    100000
61000295588          DAVID ARTURO GALEANO ZULUAGA  00000NULL55187802031      S370000000000154442520240122                    100000
61001918740          DAVID MOLINA PEREZ            00000NULL91261483306      S370000000000179442520240122                    100000
61001822088          DAYANA MARCELA MONROY MARULAND00000NULL37700001964      S370000000000145520020240122                    100000
61031181678          DAYANA NATALI VARGAS GOMEZ    00000NULL23700122018      S370000000000257404220240122                    100000
61090484223          DIEGO ALEJANDRO BOHORQUEZ ASCA00000NULL61172620239      S370000000000181690120240122                    100000
61040751864          DOUGLAS SEBASTIAN PEREZ AGUDEL00000NULL61428343751      S370000000000154442520240122                    100000
61127794202          David Stiven Orozco Vargas    00000NULL02370196021      S370000000000107333320240122                    100000
61123638674          EDWINA HENRY FIQUARE          00000NULL55100026405      S370000000000214442520240122                    100000
66083156             EMILY ANDREINA RODRIGUEZ DIAZ 00000NULL0550037200119289 S370000000000165284920240122                    500000
61011510116          ESTEBAN MENESES CRUZ          00000NULL23600004871      S370000000000175034920240122                    100000
643845224            Gloria Emilce Pulgarin Rojas  00000NULL99100000561      S370000000000080173220240122                    100000
61001139909          ISABELA VARGAS JARAMILLO      00000NULL91214765069      S370000000000197534920240122                    100000
61017253944          ANDRES PEREZ ESTRADA          00000NULL6922006967       S370000000000175034920240122                    100000
61094280724          ANGIE KARINA MANRIQUE GOMEZ   00000NULL0550036001310832 S370000000000162284920240122                    100000
61037590418          ANTHONY STEVENS POSADA PEREZ  00000NULL90755263086      S370000000000154442520240122                    100000
61126251673          Alejandro David Gonzalez Torre00000NULL25316075102      S370000000000154442520240122                    100000
61006015355          BRIAN ANTHONY HAASE OROZCO    00000NULL33357006851      S370000000000175034920240122                    100000
61005569934          CARLOS DANIEL GOMEZ PATERNINA 00000NULL55137482931      S370000000000205923420240122                    100000
61001421016          CARLOS MANUEL VILLADA CARMONA 00000NULL54128231881      S370000000000165284920240122                    100000
643983434            CATERINE TABORDA GARCIA       00000NULL09741619765      S370000000000333984220240122                    100000
61037635631          CRISTIAN ANDRES PEREIRA RAMIRE00000NULL0550036001315849 S370000000000154442520240122                    100000
61193241569          DANIELA CORREA CHICA          00000NULL37700003699      S370000000000154442520240122                    100000
61234638835          DAVID ALEJANDRO SEGURA GUZMAN 00000NULL092042217        S370000000000218793520240122                    100000
65448134             Cristina Olivera Celis        00000NULL69300001137      S370000000000154442520240122                    500000
61037618252          DALIA CAROLINA CARVAJAL MIRAND00000NULL61721911356      S370000000000411846820240122                    100000
61013651379          DANIEL ALEJANDRO MORA DUARTE  00000NULL03100072016      S370000000000209034920240122                    100000
61017202847          DANIEL SANTIAGO VALENCIA HERNA00000NULL00725457201      S370000000000397939620240122                    100000
61000204054          DANIEL VANEGAS GIL            00000NULL27757125213      S370000000000154442520240122                    100000
61023622117          ESTEBAN SEPULVEDA BARRIENTOS  00000NULL91242342220      S370000000000154442520240122                    100000
61020726018          FABIAN ALEJANDRO VARGAS ACERO 00000NULL91239038668      S370000000000360365920240122                    100000
6433238              FLORENTINO ANTHONY TAPIA HERNA00000NULL31019102656      S370000000000896800020240122                    500000
61082990246          Francisco Jose Mendoza Holguin00000NULL27900007078      S370000000000154442520240122                    100000
61020474628          GERMAN DAVID ESCORCIA FERNANDE00000NULL69368326313      S370000000000248154220240122                    100000
63638595             JOSE MIGUEL UGARTE ARENAS     00000NULL27700000365      S370000000000154442520240122                    100000
61152469311          JUAN ANDRES RAMIREZ ALVAREZ   00000NULL61496446495      S370000000000154442520240122                    100000
61017132873          JUAN CAMILO LONDOÑO QUINTERO  00000NULL61631280853      S370000000000154442520240122                    100000
61036941626          JUAN DAVID CARDONA ALZATE     00000NULL02431017612      S370000000000308885120240122                    100000
61122133582          JUAN DAVID HERNANDEZ POSSO    00000NULL55144075781      S370000000000154442520240122                    100000
61140892758          KATLEEN MICHELLE TORRES RODRIG00000NULL00543937631      S370000000000169312420240122                    100000
61128402680          KEVIN ALEXANDER OSPINA SALAZAR00000NULL93321372927      S370000000000154442520240122                    100000
61000292035          KEVIN MORALES RUIZ            00000NULL37731616010      S370000000000179442520240122                    100000
61000752337          KIARA GONZALEZ GUTIERREZ      00000NULL54036781648      S370000000000165284920240122                    100000
639190279            LISETH YOJANA RIVERA DUQUE    00000NULL10363011597      S370000000000205923420240122                    100000
61011510738          NICOLAS GRISALES MARIN        00000NULL036001314891     S370000000000113466720240122                    100000
61007668145          NICOLAS SANJUAN SARMIENTO     00000NULL0550036001307556 S370000000000164154920240122                    100000
61000206002          PABLO MARULANDA GIL           00000NULL0550036001304694 S370000000000175034920240122                    100000
61039473272          ROY STEVENS ANTEQUERA CALDERON00000NULL33375348018      S370000000000175034920240122                    100000
61020806486          Raquel Sofia Romero Morales   00000NULL91237627666      S370000000000096600020240122                    100000
61193415130          SHELSY NATHALIA GIRALDO AGUDEL00000NULL69361541472      S370000000000144842520240122                    100000
61128442653          STIVEN ORTEGA CARDONA         00000NULL31600011829      S370000000000261293520240122                    100000
61036448471          SUSANA PENAGOS RODRIGUEZ      00000NULL29285221771      S370000000000151375820240122                    100000
61037655027          Samuel Bedoya Pernett         00000NULL27420117359      S370000000000175034920240122                    100000
61035872590          Tomas Santiago Gomez Benitez  00000NULL0550036001307663 S370000000000175034920240122                    100000
61000637259          VALENTINA PARRA MIRA          00000NULL42015394328      S370000000000175034920240122                    100000
61007763672          VALENTINA ZAPARDIEL VASQUEZ   00000NULL27961651501      S370000000000154442520240122                    100000
61000540241          VALERIA ISABEL PEREZ ROJAS    00000NULL55652409082      S370000000000149040020240122                    100000
61000759806          VALERIA PEREZ RUA             00000NULL0550036001311327 S370000000000175034920240122                    100000
61017242142          VICTOR MANUEL OVIEDO DIEZ     00000NULL78220731951      S370000000000308885120240122                    100000
61001547355          WENDY JAKELINE LUNA TARASONA  00000NULL25343109302      S370000000000154442520240122                    100000
61235040677          YORMAN YONAIKER LENGUA CALVO  00000NULL67823142169      S370000000000144842520240122                    100000
61017189295          YULY RICO GARCIA              00000NULL25557020830      S370000000000135242520240122                    100000
65900237             ALFONSO DANIEL YOVERA MILAN   00000NULL01900004333      S370000000000148601720240122                    500000
61005965524          ANA MARIA GIRALDO OVIEDO      00000NULL31616031514      S370000000000175034920240122                    100000
61001004039          ANDREA LONDOÑO CAÑAS          00000NULL214330961        S370000000000154442520240122                    100000
64720981             ANDRES ENRIQUE GONZALEZ BRACHO00000NULL00600004088      S370000000000154442520240122                    500000
